:100000000C9463000C948B000C948B000C948B006C
:100010000C948B000C948B000C948B000C948B0034
:100020000C948B000C948B000C948B000C948B0024
:100030000C948B000C948B000C948B000C948B0014
:100040000C949F0C0C948B000C948B000C948B00E4
:100050000C948B000C948B000C948B000C948B00F4
:100060000C941C080C948B00000000002300260058
:10007000290000000000240027002A0000000000E2
:10008000250028002B0004040404040404040202D4
:100090000202020203030303030301020408102007
:1000A0004080010204081020010204081020000012
:1000B0000008000201000003040700000000000027
:1000C000000057127F0E11241FBECFEFD8E0DEBF15
:1000D000CDBF24E0A6E5B2E001C01D92AB37B20768
:1000E000E1F712E0A0E0B1E0E0E3FCE202C005903D
:1000F0000D92A635B107D9F710E0C2E6D0E004C0F2
:100100002197FE010E94F013C136D107C9F70E9462
:10011000830E0C940B160C94000085ED8093BC00AC
:100120008091BC0084FDFCCF10920403089540919F
:100130007802262F30E0240F311D21323105DCF406
:10014000209104032430C9F4FC0180E090E086177C
:1001500058F4309178022191DC01AA5ABD4FA30FC7
:10016000B11D2C930196F3CF80917802680F6093B4
:10017000780280E0089581E0089582E0089508956E
:10018000E091BD028091BC02E81730F4F0E0E25447
:10019000FD4F808190E008958FEF9FEF089590913B
:1001A000BD028091BC02981750F4E92FF0E0E254B0
:1001B000FD4F208130E09F5F9093BD0202C02FEF82
:1001C0003FEFC90108958091BC0290E02091BD02EB
:1001D000821B91090895CF92DF92EF92FF920F93C5
:1001E0001F93CF93DF937C01262F972F8A01809155
:1001F0000503882391F0C62FD72F6E01C40ED51E9C
:10020000CC15DD0571F06991D701ED91FC9101905C
:10021000F081E02DC7010995F3CF642F822F0E9452
:100220009700C801DF91CF911F910F91FF90EF9040
:10023000DF90CF900895CF93DF931F92CDB7DEB7B5
:100240006983209105032223D1F0209128032032D5
:1002500040F021E030E0FC013383228380E090E035
:1002600015C080910603E82FF0E0E95FFC4F99810B
:1002700090838F5F809306038093280305C061E01D
:10028000CE0101960E94970081E090E00F90DF91EF
:10029000CF910895089580E090E00895089508951D
:1002A0000895FC0163830895FC01748B638B0895AA
:1002B000DC015396ED91FC915497309749F020E082
:1002C00030E040E050E060E070E080E090E00994D1
:1002D00008950895FC01818992890895FC0187851C
:1002E00090890895FC01858596850895FC01838594
:1002F00094850895FC018185928508950895089557
:100300000F931F93CF93DF93EC018A01E881F9816A
:10031000028CF38DE02D0995E881F981068CF78D2B
:10032000E02DB801CE01DF91CF911F910F9109947B
:10033000FC01748763870895FC01728761876130CF
:10034000710519F48CEF91E205C06230710561F41A
:1003500080EB9DE19687858780E39AE2908B878783
:100360008AE090E0928B818B0895FC01808508954E
:10037000FC0160870895FC0187810895FC01678373
:100380000895FC0186810895FC0166830895FC01AF
:1003900085810895FC0165830895FC018481089599
:1003A000FC0164830895089580E0089508951F93E3
:1003B000CF93DF9389E293E00E94CF00182F89E268
:1003C00093E00E94CF00D12F20E0C22F9E01280F82
:1003D000311DC901DF91CF911F910895CF93C62F91
:1003E000672F89E293E00E941B016C2F89E293E062
:1003F000CF910C941B01EF92FF920F931F93CF9319
:10040000DF938C01EB010E949C01C130D10531F0DA
:10041000229731F488E0E82EF12C02C0E12CF12C77
:10042000F801F58EE48EDF91CF911F910F91FF902F
:10043000EF9008958091A0029091A102019665E04D
:1004400070E00E94BA139093A1028093A0020895D5
:10045000EEE9F2E0808361830895CF92DF92EF921C
:10046000FF920F931F93CF93DF931F92CDB7DEB709
:100470008C016B01DC01ED91FC91048CF58DE02D7C
:10048000498309957C01D801ED91FC9100A0F1A16F
:10049000E02DC80109954981C114D104E1F14B3027
:1004A000D0F1F6011082F1E0EF1AF10822E0E21635
:1004B000F10488F545E0EAE0F0E010E24150242F35
:1004C00030E0443011F0009751F02C0D3D1DBF017C
:1004D0000E94A613805DD9018C93CB0104C0D60184
:1004E000A20FB31F1C934111E9CFF60184818583CC
:1004F000838184838EE2838362EA71E0C60106967B
:100500000F90DF91CF911F910F91FF90EF90DF90AF
:10051000CF900C9404160F90DF91CF911F910F9103
:10052000FF90EF90DF90CF900895DC01FB011082E7
:1005300011821282138214968C91149780831796DD
:100540008C911797818318968C91189782831596B2
:100550008C918383089527E0FB0111922A95E9F796
:10056000FC018681FB01858308951F93CF93DF9360
:10057000182FD92FC62F81E08093050381E1809346
:100580002703109206031092280389E293E00E9449
:100590001B01E12FFD2FEC0FF11DEC0FF11D668902
:1005A0007789812F9D2F0E94EE01DF91CF911F91BE
:1005B0000C948A0D1F93CF93DF93EC01162F8A8D35
:1005C0009B8D9D7F91609B8F8A8F62E0CE010E9400
:1005D000B5028A8D9B8D9E7F9B8F8A8F111107C0DC
:1005E00062E0CE01DF91CF911F910C94B502DF91B3
:1005F000CF911F9108951F93CF93DF93EC01162F96
:100600008A8D9B8D93609B8F8A8F62E0CE010E94C2
:10061000B5028A8D9B8D9E7F9B8F8A8F111107C09B
:1006200062E0CE01DF91CF911F910C94B502DF9172
:10063000CF911F9108950F931F93CF93DF93EC01F8
:100640000C8D1D8D0F7011278D859E859B01681760
:10065000790708F49C014F855889F8017096421774
:10066000530708F49A01A901481B590BCA016AE013
:1006700070E00E94A6138B0186E0000F111F8A957F
:10068000E1F70E2B1F2B8A8D9B8D8960906C9B8FC1
:100690008A8F62E0CE010E94B5021D8F0C8F63E04D
:1006A000CE010E94B50265E0CE01DF91CF911F918E
:1006B0000F910C94B50280919D028F5F90E065E0F0
:1006C00070E00E94A61380939D02880F991FFC0181
:1006D000E25DFE4F608171818FEA93E00C941B0311
:1006E00010929D026CE472E28FEA93E00C941B037B
:1006F000FC016087268D378D662311F0326002C0C1
:100700003D7FFC01378F268F64E00C94B502FC011D
:100710006783228D338D662311F03F7B02C03064E6
:10072000FC01338F228F62E00C94B5026091B60316
:1007300081E068278FEA93E00C948703FC016683CD
:10074000828D938D9C013E7F338F228F662321F013
:100750003062338F228F03C09E7D938F828F62E041
:10076000CF010C94B502FC016583228D338D662385
:1007700011F0306101C03F7EFC01338F228F62E0B7
:100780000C94B5026091B40381E068278FEA93E08E
:100790000C94B303FC0164836F7020A131A1207F0E
:1007A000262B31A320A365E00C94B502EF92FF92B3
:1007B0000F931F93CF93DF938C0181E08093050308
:1007C00080E1809327031092060310922803E8012A
:1007D0006A96780184E2E80EF11C69917991C8016A
:1007E0000E94EE01CE15DF05C1F7DF91CF911F9179
:1007F0000F91FF90EF900C948A0DCF93DF93EC0153
:10080000E881F9810480F581E02D60E009951B8E77
:100810001A8ECE01DF91CF910C94D603CF92DF9246
:10082000EF92FF920F931F93CF93DF93EC018B0115
:100830000E94AB028CE090E00E944C0E7E018AE2A6
:10084000E80EF11C6E01E6E3CE0ED11CCE010E9433
:10085000D701F701819391937F01EC15FD05B1F765
:100860000E948A0D21E0F80120838AA59BA592FDB4
:10087000268397FF03C081E0F80183838DA58695C9
:100880008695F80181838CA59DA590FF02C081E02B
:1008900084838A8D9B8D95FF03C081E0F801858359
:1008A000DF91CF911F910F91FF90EF90DF90CF904C
:1008B0000895CF93DF93CDB7DEB727970FB6F8949F
:1008C000DEBF0FBECDBFBE016F5F7F4F8FEA93E0EB
:1008D0000E940E048D81882329F061E08FEA93E065
:1008E0000E94FB0227960FB6F894DEBF0FBECDBF65
:1008F000DF91CF910895CF93DF93EC0182E090E0F8
:100900000E944C0ECE010E94D7019BA78AA70E948D
:100910008A0D2AA53BA533708AE0829FA001839FA0
:10092000500D11248D859E85840F951F9C878B8784
:10093000DF91CF9108951F93CF93DF93FC0123891B
:100940003489232B09F46BC0EC0182E090E00E9413
:100950004C0ECE010E94D7019BA78AA70E948A0D48
:100960008AA59BA597FF5BC081E08093050381E189
:100970008093270310920603109228036CE089E20B
:1009800093E00E941B0180E00E942D0D41E068E091
:1009900081E10E94080E1092BD028093BC02CE013C
:1009A0000E94D7012EA53FA58217930721F09FA78C
:1009B0008EA711E001C010E0CE010E94D70128A946
:1009C00039A98217930719F099AB88AB11E0CE01D2
:1009D0000E94D7012AA93BA98217930719F09BAB64
:1009E0008AAB11E0CE010E94D7012CA93DA9821744
:1009F000930719F09DAB8CAB11E00E948A0D112377
:100A000071F02CA93DA94AA95BA968A979A9EB892C
:100A1000FC898EA59FA5DF91CF911F910994DF914D
:100A2000CF911F910895CF9360E080E00E949E0DCA
:100A3000C8E080EC91E00E942B0DC150D1F760E03E
:100A400080E00E949E0D87EA91E00E942B0D61E0FC
:100A50008FEA93E0CF910C94FB020F931F93CF93F7
:100A60008C0160E080E00E949E0DC8E080EC91E087
:100A70000E942B0DC150D1F760E080E00E949E0DD6
:100A8000C801CF911F910F910C942B0D1F93CF9301
:100A9000DF93CDB7DEB72C970FB6F894DEBF0FBE4D
:100AA000CDBF009709F453C0FC012081222309F433
:100AB0004EC0BC01CE0101960E94990B18861F8280
:100AC0001A8619861C861B8669817A8161157105D3
:100AD00039F04D815E81CE0107960E945C0B04C007
:100AE000CE0107960E944A0B43E050E06EEB71E0A6
:100AF000CE0107960E94E20A882321F16F81788552
:100B00006115710539F04B855C8585EE93E00E9497
:100B10005C0B04C085EE93E00E944A0BCE01079661
:100B20000E94940BCE0101960E94940B61E080E03C
:100B30000E949E0D10E180EC91E00E942B0D11505F
:100B4000D1F705C0CE0107960E944A0BD7CF2C964D
:100B50000FB6F894DEBF0FBECDBFDF91CF911F91CE
:100B60000895EF92FF920F931F93CF93DF937A0133
:100B70008901892BA1F560EB71E087E493E00E9485
:100B8000041667E473E081E593E00E94041669EBC4
:100B900071E08BE593E00E94041682E4EDE6F3E059
:100BA000DF011D928A95E9F710924603E0916503F3
:100BB000F0916603309719F08BE593E00995E09189
:100BC0006903F0916A03309709F4FAC081EC91E06F
:100BD000DF91CF911F910F91FF90EF900994CB017E
:100BE0008827907F965F9B0122273870832F8695F8
:100BF00086958695892B809341039B01222734702B
:100C0000932F9695969590934203109243038A32C0
:100C100009F44BC020F48A50823028F0D1C08A34C5
:100C200009F481C0CDC06370660FE12EF02EE62F6F
:100C3000F0E0EF01CF5BDC4F8E8181132AC0EE5BC9
:100C4000FC4F8681801325C0188B008B10925903AE
:100C50006630F9F461E573E087E493E00E94FB15E8
:100C6000892BB9F46BE573E081E593E00E94FB15F5
:100C7000892B79F061E573E08BE593E00E9404161F
:100C8000E0916503F0916603309719F08BE593E0EE
:100C900009958E818E1104C08F818F1509F490C043
:100CA0001E830F8310924F038BC0862F8071809319
:100CB00044036F70C62FCC0FCC0F80914603C8172A
:100CC00048F4E0916903F0916A03309719F08DE6DA
:100CD00093E00995C09346038091440390914503A6
:100CE000891749F08093450382E4EDE6F3E0DF01E4
:100CF0001D928A95E9F7EC2FF0E0EF5BFC4FF4A62C
:100D0000E1E0EC0FF0E0EF5BFC4FE4A6E2E0EC0F7B
:100D1000F0E0EF5BFC4F14A7CD5FEC2FF0E0EF5B52
:100D2000FC4F04A74DC0C80126E0969587952A95EB
:100D3000E1F78F739927B1E0EB22FF2434E0EE0C4A
:100D4000FF1C3A95E1F7A801452F552742954F70B2
:100D5000E42AF52A4CE34E9D90014F9D300D11245D
:100D6000820F931F202F2F7105FF06C03EE1239FA6
:100D7000800D911D112405C0AEE12A9F80199109B3
:100D80001124E0916703F09168033097C9F0209136
:100D90006B0330916C038217930791F090936C036F
:100DA00080936B036CE370E00E94A613962F682F6C
:100DB000892FDF91CF911F910F91FF90EF900994B0
:100DC000DF91CF911F910F91FF90EF9008958F9237
:100DD0009F92AF92BF92CF92DF92EF92FF920F93CA
:100DE0001F93CF93DF93EC01288139813327F901D9
:100DF000E255FF4F8491F901E656FF4F0491F90146
:100E0000EA57FF4F14911123A1F081110E94F40BB6
:100E1000E12FF0E0EE0FFF1FE859FF4FA591B491CD
:100E2000EC91E02391E080E009F490E0092F182F85
:100E300002C000E010E00E94930C298D3A8D21152C
:100E4000310549F42A853B850217130709F0E7C0ED
:100E500021E030E09AC02130310509F058C02885E2
:100E600039850217130709F50B8D1C8D2D8D3E8DCD
:100E70006B017C01C01AD10AE20AF30A0A811B81C4
:100E8000012E000C220B330BC016D106E206F3062E
:100E900018F41A8E198EC3C022E030E03A8F298FE1
:100EA0006F8F78A389A39AA3BAC02A853B850217BE
:100EB000130709F0B4C00B8D1C8D2D8D3E8DAB0139
:100EC000BC01401B510B620B730B8E819F81092E5D
:100ED000000CAA0BBB0B84179507A607B70708F0F1
:100EE0009EC081E08C87E989FA89309709F00995DD
:100EF000EB89FC89309709F00995EF89F88D3097D7
:100F000009F0099586E090E09A8F898F88C0223099
:100F1000310509F041C02F853889232BA9F0CB8CEE
:100F2000DC8CED8CFE8C4B015C018C189D08AE08AE
:100F3000BF08CC80DD800D2C000CEE08FF08C81423
:100F4000D904EA04FB0418F4ED85FE8550C02A8517
:100F50003B850217130709F062C00F8D18A129A164
:100F60003AA16B017C01C01AD10AE20AF30A0A8194
:100F70001B81012E000C220B330B0C151D052E05B9
:100F80003F0508F04CC023E030E03A8F298F6B8F8B
:100F90007C8F8D8F9E8F43C023303105E9F42885E7
:100FA000398502171307D9F50B8D1C8D2D8D3E8DBC
:100FB000DC01CB01801B910BA20BB30B0A811B81BF
:100FC000012E000C220B330B081719072A073B07C9
:100FD00030F5EF85F8890BC02630310501F588859D
:100FE00099850817190741F41C86ED89FE89309709
:100FF00009F44FCF09954DCF81E08C87EF89F88DAB
:10100000309769F0DF91CF911F910F91FF90EF9092
:10101000DF90CF90BF90AF909F908F900994DF9119
:10102000CF911F910F91FF90EF90DF90CF90BF90E5
:10103000AF909F908F9008951F920F920FB60F92CE
:1010400011242F933F934F935F936F937F938F93CD
:101050009F93AF93BF93EF93FF938091B900887FE5
:10106000803609F49CC068F5883209F45BC090F4BE
:10107000803109F454C038F4882309F4F6C088306C
:1010800009F44DC0F6C0883109F44CC0803209F42F
:101090005DC0EFC0803409F468C048F4803309F4BF
:1010A00055C0883309F0E5C080930203D8C080356D
:1010B00009F44FC0883509F45DC0883409F0D9C0FF
:1010C000D6C0883909F4C7C0A8F4883709F467C0C6
:1010D00038F4883609F463C0803709F460C0C9C0A9
:1010E000883809F4B8C0803909F45FC0803809F045
:1010F000C0C05BC0803B09F486C038F4803A09F474
:1011000066C0883A09F47FC0B4C0803C09F4A7C027
:10111000883C09F4A4C0883B09F48AC0AAC0809125
:10112000DF0210C09091010380910003981770F5C1
:10113000E091010381E08E0F80930103F0E0E05223
:10114000FD4F80818093BB0085EC86C080930203B5
:101150008EC0E091010381E08E0F809301038091A6
:10116000BB00F0E0E052FD4F80839091010380913D
:1011700000036EC0E091010381E08E0F80930103B4
:101180008091BB00F0E0E052FD4F8083809103032B
:1011900081116DC081E08093DE0284EA61C083E04A
:1011A0008093040310929C02CFCF80919C028032E6
:1011B00008F051C0E0919C0281E08E0F80939C0268
:1011C0008091BB00F0E0E458FD4F8083BDCF85ECFB
:1011D0008093BC001092040380919C02803230F412
:1011E000E0919C02F0E0E458FD4F108260919C0277
:1011F00070E0E0917A02F0917B028CE792E0099531
:1012000010929C0236C084E080930403109279020D
:1012100010927802E0917602F09177020995809120
:101220007802811105C081E0809378021092560205
:10123000E091790281E08E0F80937902F0E0EA5A22
:10124000FD4F80818093BB0090917902809178025C
:10125000981708F479CF85E88093BC000AC085EC24
:101260008093BC001092040304C0109202030E94F9
:101270008D00FF91EF91BF91AF919F918F917F91E1
:101280006F915F914F913F912F910F900FBE0F90F3
:101290001F9018951092040381E08093030310922D
:1012A000DE0282E10E94590E83E10E94590EE9EBB1
:1012B000F0E080818E7F808380818D7F808388E4D1
:1012C0008093B80085E48093BC000895CF93DF93AA
:1012D000EC011092BD021092BC0210920603109213
:1012E00028030E944A0981E08093050381E18093ED
:1012F000270310920603109228030E948A0D811181
:101300002EC084E098E59F8B8E8B198E188E83E01B
:1013100090E09B8F8A8FE881F981028CF38DE02D1C
:1013200061E070E0CE01099580E098E09F8F8E8F9C
:1013300081E890E999A388A31BA21AA21DA21CA26E
:101340001FA21EA219A618A6CE010E94D60381E0F4
:1013500090E09B8F8A8F62E0CE010E94B50281E00F
:10136000DF91CF910895CF92DF92EF92FF920F938A
:101370001F93CF93DF93CDB7DEB7A1970FB6F89445
:10138000DEBF0FBECDBF61E080E00E949E0D82EC0B
:1013900091E00E942B0D8091B603882319F088EC10
:1013A00091E041C010E04091B303212F30E0842F41
:1013B00090E0019695958795281739073CF46FEFD3
:1013C00085E393E00E94020D1F5FEDCF40FD05C055
:1013D00066E085E393E00E94020D80EC91E00E94BC
:1013E0002B0D2091B30330E040E050E019A28E01B4
:1013F0000F5D1F4F8AE0C82ED12CE12CF12CCA01C1
:10140000B901A70196010E94CE13605DF8016293B5
:101410008F01211531054105510589F7CF010E9442
:10142000190D8FEB91E00E942B0DA1960FB6F89449
:10143000DEBF0FBECDBFDF91CF911F910F91FF9007
:10144000EF90DF90CF9008956091B3038091B60341
:10145000882331F060E08FEA93E00E94870307C0A1
:101460006F3028F46F5F8FEA93E00E94CA030E94F6
:10147000B30964EF71E080E090E00C94590C609146
:10148000B303662331F061508FEA93E00E94CA03F0
:1014900005C061E08FEA93E00E9487030E94B309D0
:1014A00064EF71E080E090E00C94590CCF92DF92F1
:1014B000EF92FF920F931F93CF93DF936C017A010A
:1014C0008B01C0E0D0E0CE15DF0589F0D8016D9129
:1014D0008D01D601ED91FC910190F081E02DC601C6
:1014E0000995892B11F47E0102C02196ECCFC7012A
:1014F000DF91CF911F910F91FF90EF90DF90CF90F0
:1015000008953FB7F8948091A7029091A802A09106
:10151000A902B091AA0226B5A89B05C02F3F19F0D9
:101520000196A11DB11D3FBFBA2FA92F982F882763
:10153000820F911DA11DB11DBC01CD0142E0660FBE
:10154000771F881F991F4A95D1F708950E94ED15BE
:101550000F931F93CF93DF93EC01888199810097BC
:1015600029F02A813B812617370788F48B016F5FAA
:101570007F4F0E942315009761F0998388831B8316
:101580000A832C813D81232B11F4FC01108281E020
:1015900001C080E0DF91CF911F910F910895FC0170
:1015A000248131E030930503209327031092060332
:1015B000109228038385682B89E293E00E941B0127
:1015C0000C948A0DEF92FF920F931F93CF93DF93AA
:1015D000FC01248135816115710511F480E019C089
:1015E00041155105A9F07B01EC018A01020F131F7F
:1015F000B8010E94A80A882389F3288139818C8147
:101600009D81B701820F931F0E9404161D830C83D6
:1016100081E0DF91CF911F910F91FF90EF9008959E
:10162000EF92FF920F931F93CF93DF9300D000D0E0
:10163000CDB7DEB77C01862F4AE08E010F5F1F4FCA
:10164000B80190E00E943A13F80101900020E9F7F8
:101650003197AF01401B510BB801C7010E94E20A4C
:101660000F900F900F900F90DF91CF911F910F91DE
:10167000FF90EF9008956115710551F0FB01019005
:101680000020E9F73197AF01461B570B0C94E20A93
:1016900080E00895CF93DF93EC01888199810097D2
:1016A00011F00E948B14198218821D821C821B82E9
:1016B0001A82DF91CF910895EF92FF920F931F93BB
:1016C000CF93DF93EC017B018A01BA010E94A80A43
:1016D000811104C0CE010E944A0B07C01D830C83F8
:1016E000B701888199810E940416CE01DF91CF91C4
:1016F0001F910F91FF90EF900895CF93DF93EC012E
:101700006115710559F0FB0101900020E9F731974F
:10171000AF01461B570B0E945C0B02C00E944A0B94
:10172000CE01DF91CF910895FC01808191810C94CD
:101730008B14FC0111821082138212821582148292
:101740006115710551F0FB0101900020E9F7319717
:10175000AF01461B570B0C945C0B0895BF92CF92C0
:10176000DF92EF92FF920F931F93CF93DF937C0151
:101770006B018A01E9012417350720F4812F8901C3
:10178000C42FD82F61EC71E0C7010E94990BD601DC
:1017900014968D919C91159708171907D0F48C1702
:1017A0009D0708F4EC01D601ED91FC911197EC0F27
:1017B000FD1FB08010824D915C91BA01600F711FC6
:1017C000C7010E947D0BD601ED91FC91EC0FFD1F2E
:1017D000B082C701DF91CF911F910F91FF90EF90E1
:1017E000DF90CF90BF900895833081F028F481304E
:1017F00099F08230A1F008958730A9F08830B9F0CF
:101800008430D1F4809180008F7D03C0809180006E
:101810008F7780938000089584B58F7702C084B558
:101820008F7D84BD08958091B0008F7703C0809133
:10183000B0008F7D8093B0000895CF93DF9390E048
:10184000FC01E656FF4F2491FC01EA57FF4F8491BB
:10185000882361F190E0880F991FFC01EE58FF4F3B
:10186000C591D491FC01E458FF4FA591B491611149
:1018700009C09FB7F8948881209582238883EC91D2
:101880002E230BC0623061F49FB7F8943881822F09
:10189000809583238883EC912E2B2C939FBF06C0C9
:1018A0008FB7F894E8812E2B28838FBFDF91CF91DB
:1018B00008958F929F92AF92BF92CF92DF92EF9254
:1018C000FF926B017C010E94810A4B015C01C114F3
:1018D000D104E104F104F1F00E94810ADC01CB01A2
:1018E00088199909AA09BB09883E9340A105B10549
:1018F00070F321E0C21AD108E108F10888EE880EE1
:1019000083E0981EA11CB11CC114D104E104F104B0
:1019100019F7DDCFFF90EF90DF90CF90BF90AF90A1
:101920009F908F9008952FB7F8946091A3027091C3
:10193000A4028091A5029091A6022FBF08951F9244
:101940000F920FB60F9211242F933F938F939F9373
:10195000AF93BF938091A3029091A402A091A5029E
:10196000B091A6023091A20223E0230F2D3720F47C
:101970000196A11DB11D05C026E8230F0296A11DE9
:10198000B11D2093A2028093A3029093A402A0937E
:10199000A502B093A6028091A7029091A802A091FF
:1019A000A902B091AA020196A11DB11D8093A702C0
:1019B0009093A802A093A902B093AA02BF91AF91FD
:1019C0009F918F913F912F910F900FBE0F901F907D
:1019D00018950F931F93CF938C01C62F0E94CF0AA7
:1019E0006C2F6460C8010E94CF0A6C2F6B7FC80106
:1019F0000E94CF0A83EC90E00197F1F7CF911F91FD
:101A00000F9108950F931F93CF938C01C62F607F82
:101A100061600E94E90C80E1C89FB00111246160FF
:101A2000C8010E94E90C81E090E0CF911F910F91D5
:101A30000895009769F0FC0101900020E9F73197C3
:101A4000AF01481B590BBC0185E393E00C94560A87
:101A500080E090E008950C94190D382F2091280310
:101A600090912703213208F049C08091040381112D
:101A7000FCCF42E040930403309303033FEF3093E5
:101A800002031092010320930003A7E0B3E040EEAD
:101A900052E0FA013E2F341B321718F43D91319376
:101AA000F9CF1092DF022091DF02990F922B9093D1
:101AB000DF029091DE02913061F41092DE0290918B
:101AC000DF029093BB009091BC0093FDF8CF95ECA2
:101AD00001C095EE9093BC00909104039230E1F325
:101AE000909102039F3F79F080910203803241F090
:101AF00080910203803331F084E005C081E003C0AF
:101B000082E001C083E01092060310922803109235
:101B10000503089581E00C942D0DCF93C82F682FF5
:101B2000607F85E393E00E94E90C80E1C89FB001EB
:101B3000112485E393E0CF910C94E90CCF93DF93CC
:101B4000CDB7DEB728970FB6F894DEBF0FBECDBF76
:101B500098E0E8E3F1E0DE01119601900D929A958C
:101B6000E1F790913D03961710F46FEF690FFE01B6
:101B70003196E60FF11DE60FF11D9081890F806807
:101B800028960FB6F894DEBF0FBECDBFDF91CF9180
:101B90000C948D0D81E00E948D0D8BE39FE10197E8
:101BA000F1F70895FC01448155816081718185E3DD
:101BB00093E00C94560AEF92FF920F931F93CF93EA
:101BC000DF9300D0CDB7DEB7877028E0829FC001D9
:101BD0001124806469837A830E948D0D6981E62EC9
:101BE0007A81F72E8701085F1F4FF70161917F010E
:101BF00085E393E00E94020DE016F106B1F70F9025
:101C00000F90DF91CF911F910F91FF90EF9008956A
:101C1000909104039111FCCF91E0909304034093C1
:101C200003032FEF2093020310920103260F20934A
:101C300000039093DF029091DF02880F892B80933D
:101C4000DF028091DE02813061F41092DE02809129
:101C5000DF028093BB008091BC0083FDF8CF85EC50
:101C600001C085EE8093BC00809104038130E1F3D4
:101C700080910103861710F460910103A0EEB2E099
:101C80002EEB32E0F9018E2F821B861718F48D910E
:101C90008193F9CF862F0895813208F080E241E0E8
:101CA000682F80E10E94080E1092BD028093BC0252
:101CB0000895CF93DF93282F30E0F901E255FF4FCD
:101CC0008491F901E656FF4FD491F901EA57FF4F8D
:101CD000C491CC2389F081110E94F40BEC2FF0E029
:101CE000EE0FFF1FE458FF4FA591B4918FB7F89402
:101CF000EC91ED2BEC938FBFDF91CF91089585EEA2
:101D000093E00C94940BCF93DF93CDB7DEB7E897B5
:101D10000FB6F894DEBF0FBECDBF789484B5826055
:101D200084BD84B5816084BD85B5826085BD85B57F
:101D3000816085BD80916E00816080936E001092FD
:101D40008100809181008260809381008091810078
:101D50008160809381008091800081608093800009
:101D60008091B10084608093B1008091B000816067
:101D70008093B00080917A00846080937A00809193
:101D80007A00826080937A0080917A0081608093EB
:101D90007A0080917A00806880937A001092C10066
:101DA0001092BD021092BC021092060310922803FA
:101DB0000E944A0910923A0380913F03823018F042
:101DC00098E090933A0380933D0362E370E080E0F3
:101DD00090E00E94590C6091400385E393E00E94DB
:101DE000CF0A68EE73E080E090E00E94590C60E357
:101DF00085E393E00E94E90C0BE416E4C801019727
:101E0000F1F760E385E393E00E94E90CC8010197D4
:101E1000F1F760E385E393E00E94E90C83E592E04B
:101E20000197F1F760E285E393E00E94E90C80916D
:101E30003A0380620E948D0D84E080933B038CE026
:101E40000E948D0D0E94CA0D82E080933C0386E0C3
:101E50000E948D0D82E00E948D0D8BE39FE1019722
:101E6000F1F718E01093400360E085E393E00E94EF
:101E7000CF0A8FEA93E00E946609E0919D02F0E0AC
:101E8000EE0FFF1FE25DFE4F4081518161E070E087
:101E90008FEA93E00E94800160E08FEA93E00E9465
:101EA0009E0360E08FEA93E00E94870361E08FEA7F
:101EB00093E00E94CA03E6E0F1E0DE019596812FEF
:101EC00001900D928A95E1F7EEE0F1E0DE015D967A
:101ED000812F01900D928A95E1F7E6E1F1E0DE01B4
:101EE0005596812F01900D928A95E1F7EEE1F1E090
:101EF000DE011D96812F01900D928A95E1F7E6E2B1
:101F0000F1E0DE011196812F01900D928A95E1F7A3
:101F1000BE016B5D7F4F82E00E94DB0DBE01635E00
:101F20007F4F83E00E94DB0DBE016B5E7F4F84E03C
:101F30000E94DB0DBE01635F7F4F85E00E94DB0DD9
:101F4000BE016F5F7F4F86E00E94DB0D1093400360
:101F500060E085E393E00E94CF0A0E94CA0D809161
:101F60003B03982F916090933B0389600E948D0DF5
:101F700060E081E00E949E0D62E085E393E00E94B4
:101F8000020D63E085E393E00E94020D82ED91E093
:101F90000E942B0D61E080E00E949E0D64E085E3CD
:101FA00093E00E94020D65E085E393E00E94020D3C
:101FB00061E084E00E949E0D6EED71E0CE01C3965B
:101FC0000E94990B40E050E08A010F5F1F4F98017B
:101FD000BE016D5C7F4FCE018D960E94AE0BCE018F
:101FE0008D960E94D20DCE018D960E94940B68ECC6
:101FF00070E080E090E00E94590CA8010B301105C0
:1020000019F768E572E080E090E00E94590C1DE04D
:1020100061E0812F0E949E0D80EC91E00E942B0DCB
:1020200064E670E080E090E00E94590C115012309C
:1020300079F769EE71E0CE01C3960E947D0B40E016
:1020400050E08A010F5F1F4F9801BE016D5C7F4F0A
:10205000CE018D960E94AE0BCE018D960E94D20DC0
:10206000CE018D960E94940B68EC70E080E090E0C9
:102070000E94590CA8010C30110519F768E775E0AA
:1020800080E090E00E94590C80913B038E7F80930A
:102090003B0388600E948D0D0E94CA0DCE01C3963D
:1020A0000E94940B81EB95E09093C3038093C2034D
:1020B0008DE295E0909366038093650386E495E056
:1020C00090936A038093690388E292E09093680397
:1020D0008093670384E29AE09093620480936104A2
:1020E00022EC33E0309364042093630490936C04F7
:1020F00080936B048FE39AE090933F0480933E04B7
:1021000026E933E03093410420934004909349043E
:102110008093480480E793E090931C0480931B0411
:102120008BE593E090931E0480931D0483E195E07A
:10213000909322048093210489E594E090932604EF
:10214000809325048AE192E09093F9038093F80349
:1021500000E010E00E94930C6B017C0184E594E0A8
:102160000E94E70681E394E00E94E7068EE094E097
:102170000E94E7068BEE93E00E94E7068091B8028A
:102180009091B902A091BA02B091BB028C159D0545
:10219000AE05BF0588F48FEA93E00E949B04D70147
:1021A000C601C296A11DB11D8093B8029093B902D9
:1021B000A093BA02B093BB028091B4029091B50291
:1021C000A091B602B091B7028C159D05AE05BF0572
:1021D00008F063C160E089E00E949E0DBE01635F6C
:1021E0007F4F8FEA93E00E940E04BE016B5E7F4F2B
:1021F0008FEA93E00E9495028989882319F085EF80
:1022000091E002C08FEB91E00E942B0D8B89882317
:1022100019F088EF91E002C08FEB91E00E942B0D46
:102220008E89882319F08BEF91E002C08FEB91E04B
:102230000E942B0D888D882319F08EEF91E002C04B
:1022400080EC91E00E942B0D8091A0029091A10260
:102250002091B2023091B3028217930769F48FEA9A
:1022600093E00E947B045C018091B0029091B102E6
:10227000A816B90699F42AC09093B3028093B202CB
:1022800061E080E00E949E0D80E1B82E80EC91E03C
:102290000E942B0DBA94B110F9CFE1CF80911A04AE
:1022A000811114C0B092B102A092B00265E372E055
:1022B00085EE93E00E947D0B8CE4A81682E2B806BE
:1022C00009F0F2C080E092E00E942D0561E080E01C
:1022D0000E949E0D8091A0029091A10282309105F2
:1022E00009F483C0A4F40097C1F1019709F0C8C0B4
:1022F0004CE0BE016F5F7F4F8FEA93E00E942D029A
:1023000080E192E00E942B0DCE010196A7C08330A0
:10231000910509F4B3C0049709F0B2C061EC71E013
:10232000CE0101960E94990B67E272E0CE01019600
:102330000E947D0B6F85CE0101960E94100B6DE20D
:1023400072E0CE0101960E943B0B6E85CE01019694
:102350000E94100B6EEB71E084C00E94930C809081
:10236000AC029090AD02A090AE02B090AF02861683
:102370009706A806B90608F083C00E94930CDC01FA
:10238000CB018C509E4FAF4FBF4F8093AC029093C8
:10239000AD02A093AE02B093AF024091AB0250E009
:1023A0009A01205F3F4F65EE73E0CE0101960E94D7
:1023B000AE0BCE0101960E94D20DCE0101960E9475
:1023C000940B8091AB02282F30E0215F3F4F40916A
:1023D000E9035091EA032417350720F48F5F8093B7
:1023E000AB024EC01092AB024BC0B0909E02BB201D
:1023F00099F161EC71E0CE0101960E94990B6CEBB2
:1024000071E0CE0101960E947D0B89E08B1530F0C2
:1024100067E172E0CE0101960E943B0B6B2DCE016D
:1024200001960E94100B69E172E0CE0101960E94B4
:102430003B0BB0909F0289E08B1530F067E172E0B2
:10244000CE0101960E943B0B6B2DCE0101960E949E
:10245000100B6CEB71E005C08BE192E00E942B0D3C
:102460000FC0CE0101960E943B0BCE0101960E9447
:10247000D20DCE0101960E94940B02C00E94B309B6
:1024800088ECC80ED11CE11CF11CC092B402D092A1
:10249000B502E092B602F092B7020115110509F4F7
:1024A00059CE0E94000056CE88E092E00DCFAF9248
:1024B000BF92CF92DF92EF92FF920F931F93CF9331
:1024C000DF93E9E2F3E01382128288EE93E0A0E06A
:1024D000B0E084839583A683B78384E491E09183FD
:1024E0008083C4E5D4E083E090E09983888392E31D
:1024F000A92EB12CBB82AA8228E5C22E22E0D22EC0
:10250000DD82CC8238EEE32E33E0F32EFF82EE82C2
:102510001A8E198E1C861986188601E010E01B871A
:102520000A8760E00E941D0C1E861D86188A1F8681
:102530001A8A198A1C8A1B8A1E8A1D8A188E1F8A6B
:10254000C1E3D4E082E090E099838883BB82AA82D1
:10255000DD82CC82FF82EE821A8E198E1C8619864D
:1025600018861B870A8760E00E941D0C1E861D8648
:10257000188A1F861A8A198A1C8A1B8A1E8A1D8A33
:10258000188E1F8ACEE0D4E084E090E0998388839F
:10259000BB82AA82DD82CC82FF82EE821A8E198EE5
:1025A0001C86198618861B870A8760E00E941D0C0E
:1025B0001E861D86188A1F861A8A198A1C8A1B8AFB
:1025C0001E8A1D8A188E1F8ACBEED3E085E090E02C
:1025D00099838883BB82AA82DD82CC82FF82EE82CD
:1025E0001A8E198E1C86198618861B870A8760E04A
:1025F0000E941D0C1E861D86188A1F861A8A198A3B
:102600001C8A1B8A1E8A1D8A188E1F8A61EC71E043
:1026100085EE93E00E94990BEFEAF3E085E1DF019C
:102620001D928A95E9F782E691E0918380838FE09D
:10263000858B8EE6E1E4F3E0DF011D928A95E9F7F0
:10264000E5E3F3E01382128286E591E091838083D3
:1026500087E2848380E1818782E082871386DF912D
:10266000CF911F910F91FF90EF90DF90CF90BF908F
:10267000AF900895BB274A3031F4992322F4BDE28C
:10268000909581959F4F0C944613BB27FB015527CE
:10269000AA27880F991FAA1FA41710F0A41B8395BF
:1026A0005051B9F7A05DAA3308F0A95DA193009736
:1026B00079F7B111B1931192CB010C945F13DC0146
:1026C000FC01672F71917723E1F7329704C07C9169
:1026D0006D9370836291AE17BF07C8F308952F9270
:1026E0003F924F925F926F927F928F929F92AF92A2
:1026F000BF92CF92DF92EF92FF920F931F93CF93EF
:10270000DF93CDB7DEB7CA1BDB0B0FB6F894DEBF85
:102710000FBECDBF09942A88398848885F846E84AB
:102720007D848C849B84AA84B984C884DF80EE80F5
:10273000FD800C811B81AA81B981CE0FD11D0FB6FE
:10274000F894DEBF0FBECDBFED010895AA1BBB1BE1
:1027500051E107C0AA1FBB1FA617B70710F0A61BA1
:10276000B70B881F991F5A95A9F780959095BC01C2
:10277000CD01089597FB072E16F4009407D077FD3E
:1027800009D00E94A61307FC05D03EF490958195D0
:102790009F4F0895709561957F4F0895A1E21A2E7D
:1027A000AA1BBB1BFD010DC0AA1FBB1FEE1FFF1FF5
:1027B000A217B307E407F50720F0A21BB30BE40B45
:1027C000F50B661F771F881F991F1A9469F760958C
:1027D0007095809590959B01AC01BD01CF01089546
:1027E000EE0FFF1F0590F491E02D0994CF93DF9336
:1027F0008230910510F482E090E0E0917904F0914C
:102800007A0420E030E0C0E0D0E0309711F1408160
:10281000518148175907C0F04817590761F4828160
:102820009381209719F09B838A832BC090937A041D
:102830008093790426C02115310519F042175307FA
:1028400018F49A01BE01DF01EF010280F381E02D4F
:10285000DCCF2115310509F1281B390B2430310556
:1028600090F412968D919C9113976115710521F04A
:10287000FB019383828304C090937A04809379044C
:10288000FD01329644C0FD01E20FF31F8193919345
:10289000225031092D933C933AC020917704309116
:1028A0007804232B41F420910201309103013093ED
:1028B00078042093770420910001309101012115C3
:1028C000310541F42DB73EB7409104015091050107
:1028D000241B350BE0917704F0917804E217F3079D
:1028E000A0F42E1B3F0B2817390778F0AC014E5F80
:1028F0005F4F2417350748F04E0F5F1F5093780441
:10290000409377048193919302C0E0E0F0E0CF011F
:10291000DF91CF9108950F931F93CF93DF9300978B
:1029200009F48CC0FC013297138212820091790461
:1029300010917A040115110581F420813181820FF3
:10294000931F20917704309178042817390779F57F
:10295000F0937804E093770471C0D80140E050E030
:10296000AE17BF0750F412962D913C911397AD010D
:102970002115310509F1D901F3CF9D01DA01338326
:10298000228360817181860F971F8217930769F4F4
:10299000EC0128813981260F371F2E5F3F4F31838D
:1029A00020838A819B8193838283452B29F4F09332
:1029B0007A04E093790442C01396FC93EE93129745
:1029C000ED01499159919E01240F351FE217F3073C
:1029D00071F480819181840F951F029611969C93CA
:1029E0008E938281938113969C938E931297E0E04D
:1029F000F0E0D80112968D919C911397009719F0F1
:102A0000F8018C01F6CF8D919C9198012E5F3F4F7C
:102A1000820F931F2091770430917804281739078B
:102A200069F4309729F410927A041092790402C064
:102A3000138212821093780400937704DF91CF9170
:102A40001F910F910895A0E0B0E0E9E2F5E10C9448
:102A50007313EC01009721F4CB010E94F613B8C068
:102A6000FC01E60FF71F9C0122503109E217F30722
:102A700008F4ACC0D9010D911C91119706171707E6
:102A8000B0F00530110508F49FC0C80104978617FF
:102A9000970708F499C002501109061B170B019300
:102AA00011936D937C93CF010E948B148DC05B01B9
:102AB000A01AB10A4C01800E911EA0917904B09128
:102AC0007A0440E050E0E12CF12C109709F44AC060
:102AD000A815B905D1F56D907C901197630182E03E
:102AE000C80ED11CCA14DB0480F1A3014A195B098A
:102AF0006A0182E0C80ED11C1296BC901297139600
:102B0000AC91B5E0CB16D10440F0B282A3835183DF
:102B10004083D9016D937C930AC00E5F1F4FC301A0
:102B2000800F911FF90191838083EB2DFA2FE1141F
:102B3000F10431F0D7011396FC93EE93129744C041
:102B4000F0937A04E09379043FC08D919C911197A2
:102B50004817590708F4AC017D0112960D90BC91FD
:102B6000A02DB3CF809177049091780488159905B2
:102B7000E1F446175707C8F48091000190910101D4
:102B8000009741F48DB79EB7409104015091050123
:102B9000841B950BE817F907C8F4F0937804E093C9
:102BA0007704F901718360830FC0CB010E94F61393
:102BB0007C01009759F0A801BE010E94F215CE01D8
:102BC0000E948B14C70104C0CE0102C080E090E0D7
:102BD000CDB7DEB7EEE00C948F1381E090E0F8946F
:102BE0000C940B16FB01DC0102C001900D924150C8
:102BF0005040D8F70895FB01DC018D9101908019B8
:102C00000110D9F3990B0895FB01DC0101900D929D
:102C10000020E1F7089510E0C2E6D0E004C0FE0114
:102C20000E94F0132196C336D107C9F7F894FFCF5D
:102C300000007B04800000010103030303031F1F46
:102C40001F1E0000000003070C0D0D0C0703131BD3
:102C50000B1B13071E181C1C1C1C1C1C1C1C4C22B0
:102C6000E222E0245E29A429000040001400540060
:102C7000000000001B01EB004B01BF00E300CF0090
:102C8000C00000000000020D560A4B014A0100007E
:102C900000006609FD03CA03CD018703BB01780369
:102CA000B501B303C70172016E016A01FB017A012C
:102CB0001B037B048001FB02DA029E03C1010E04A8
:102CC00095029B04580154012D02510150014F01FE
:102CD000D601204D487A0053756368652E2E2E006C
:102CE0002D2D2D2D2D2D2D2D00202020202020209C
:102CF0002000566F6C3A20006D75746564202020AA
:102D00002000202A524144494F494E4F2A0057651E
:102D10006C6C652057657374002A5765747465720E
:102D200061752A20005420005320004D20004200ED
:102D300020576557655765004E6F204E616D6500E1
:102D4000467265713A200030003A004E4F205244DE
:102D5000532054494D4500534E523A2000205253BF
:102D600053493A20004B65696E2052445320546504
:102D70007874202E2E2E206269747465207761721B
:062D800074656E202000C6
:00000001FF
